{
  "contractName": "MetadevsContract",
  "abi": [
    {
      "inputs": [],
      "stateMutability": "nonpayable",
      "type": "constructor"
    },
    {
      "anonymous": false,
      "inputs": [
        {
          "indexed": true,
          "internalType": "address",
          "name": "owner",
          "type": "address"
        },
        {
          "indexed": true,
          "internalType": "address",
          "name": "approved",
          "type": "address"
        },
        {
          "indexed": true,
          "internalType": "uint256",
          "name": "tokenId",
          "type": "uint256"
        }
      ],
      "name": "Approval",
      "type": "event"
    },
    {
      "anonymous": false,
      "inputs": [
        {
          "indexed": true,
          "internalType": "address",
          "name": "owner",
          "type": "address"
        },
        {
          "indexed": true,
          "internalType": "address",
          "name": "operator",
          "type": "address"
        },
        {
          "indexed": false,
          "internalType": "bool",
          "name": "approved",
          "type": "bool"
        }
      ],
      "name": "ApprovalForAll",
      "type": "event"
    },
    {
      "anonymous": false,
      "inputs": [
        {
          "indexed": true,
          "internalType": "address",
          "name": "from",
          "type": "address"
        },
        {
          "indexed": true,
          "internalType": "address",
          "name": "to",
          "type": "address"
        },
        {
          "indexed": true,
          "internalType": "uint256",
          "name": "tokenId",
          "type": "uint256"
        }
      ],
      "name": "Transfer",
      "type": "event"
    },
    {
      "inputs": [
        {
          "internalType": "address",
          "name": "to",
          "type": "address"
        },
        {
          "internalType": "uint256",
          "name": "tokenId",
          "type": "uint256"
        }
      ],
      "name": "approve",
      "outputs": [],
      "stateMutability": "nonpayable",
      "type": "function"
    },
    {
      "inputs": [
        {
          "internalType": "address",
          "name": "owner",
          "type": "address"
        }
      ],
      "name": "balanceOf",
      "outputs": [
        {
          "internalType": "uint256",
          "name": "",
          "type": "uint256"
        }
      ],
      "stateMutability": "view",
      "type": "function"
    },
    {
      "inputs": [
        {
          "internalType": "uint256",
          "name": "tokenId",
          "type": "uint256"
        }
      ],
      "name": "getApproved",
      "outputs": [
        {
          "internalType": "address",
          "name": "",
          "type": "address"
        }
      ],
      "stateMutability": "view",
      "type": "function"
    },
    {
      "inputs": [
        {
          "internalType": "address",
          "name": "owner",
          "type": "address"
        },
        {
          "internalType": "address",
          "name": "operator",
          "type": "address"
        }
      ],
      "name": "isApprovedForAll",
      "outputs": [
        {
          "internalType": "bool",
          "name": "",
          "type": "bool"
        }
      ],
      "stateMutability": "view",
      "type": "function"
    },
    {
      "inputs": [],
      "name": "name",
      "outputs": [
        {
          "internalType": "string",
          "name": "",
          "type": "string"
        }
      ],
      "stateMutability": "view",
      "type": "function"
    },
    {
      "inputs": [
        {
          "internalType": "uint256",
          "name": "tokenId",
          "type": "uint256"
        }
      ],
      "name": "ownerOf",
      "outputs": [
        {
          "internalType": "address",
          "name": "",
          "type": "address"
        }
      ],
      "stateMutability": "view",
      "type": "function"
    },
    {
      "inputs": [
        {
          "internalType": "address",
          "name": "from",
          "type": "address"
        },
        {
          "internalType": "address",
          "name": "to",
          "type": "address"
        },
        {
          "internalType": "uint256",
          "name": "tokenId",
          "type": "uint256"
        }
      ],
      "name": "safeTransferFrom",
      "outputs": [],
      "stateMutability": "nonpayable",
      "type": "function"
    },
    {
      "inputs": [
        {
          "internalType": "address",
          "name": "from",
          "type": "address"
        },
        {
          "internalType": "address",
          "name": "to",
          "type": "address"
        },
        {
          "internalType": "uint256",
          "name": "tokenId",
          "type": "uint256"
        },
        {
          "internalType": "bytes",
          "name": "_data",
          "type": "bytes"
        }
      ],
      "name": "safeTransferFrom",
      "outputs": [],
      "stateMutability": "nonpayable",
      "type": "function"
    },
    {
      "inputs": [
        {
          "internalType": "address",
          "name": "operator",
          "type": "address"
        },
        {
          "internalType": "bool",
          "name": "approved",
          "type": "bool"
        }
      ],
      "name": "setApprovalForAll",
      "outputs": [],
      "stateMutability": "nonpayable",
      "type": "function"
    },
    {
      "inputs": [
        {
          "internalType": "bytes4",
          "name": "interfaceId",
          "type": "bytes4"
        }
      ],
      "name": "supportsInterface",
      "outputs": [
        {
          "internalType": "bool",
          "name": "",
          "type": "bool"
        }
      ],
      "stateMutability": "view",
      "type": "function"
    },
    {
      "inputs": [],
      "name": "symbol",
      "outputs": [
        {
          "internalType": "string",
          "name": "",
          "type": "string"
        }
      ],
      "stateMutability": "view",
      "type": "function"
    },
    {
      "inputs": [
        {
          "internalType": "uint256",
          "name": "tokenId",
          "type": "uint256"
        }
      ],
      "name": "tokenURI",
      "outputs": [
        {
          "internalType": "string",
          "name": "",
          "type": "string"
        }
      ],
      "stateMutability": "view",
      "type": "function"
    },
    {
      "inputs": [
        {
          "internalType": "address",
          "name": "from",
          "type": "address"
        },
        {
          "internalType": "address",
          "name": "to",
          "type": "address"
        },
        {
          "internalType": "uint256",
          "name": "tokenId",
          "type": "uint256"
        }
      ],
      "name": "transferFrom",
      "outputs": [],
      "stateMutability": "nonpayable",
      "type": "function"
    },
    {
      "inputs": [
        {
          "internalType": "address",
          "name": "recipient",
          "type": "address"
        },
        {
          "internalType": "string",
          "name": "tokenURI",
          "type": "string"
        }
      ],
      "name": "mintNFT",
      "outputs": [
        {
          "internalType": "uint256",
          "name": "",
          "type": "uint256"
        }
      ],
      "stateMutability": "nonpayable",
      "type": "function"
    }
  ],
  "bytecode": "0x608060405234801561000f575f80fd5b506040518060400160405280600d81526020017f4d65746164657673546f6b656e000000000000000000000000000000000000008152506040518060400160405280600581526020017f4d44544b4e000000000000000000000000000000000000000000000000000000815250815f908161008a91906102dc565b50806001908161009a91906102dc565b5050506103ab565b5f81519050919050565b7f4e487b71000000000000000000000000000000000000000000000000000000005f52604160045260245ffd5b7f4e487b71000000000000000000000000000000000000000000000000000000005f52602260045260245ffd5b5f600282049050600182168061011d57607f821691505b6020821081036101305761012f6100d9565b5b50919050565b5f819050815f5260205f209050919050565b5f6020601f8301049050919050565b5f82821b905092915050565b5f600883026101927fffffffffffffffffffffffffffffffffffffffffffffffffffffffffffffffff82610157565b61019c8683610157565b95508019841693508086168417925050509392505050565b5f819050919050565b5f819050919050565b5f6101e06101db6101d6846101b4565b6101bd565b6101b4565b9050919050565b5f819050919050565b6101f9836101c6565b61020d610205826101e7565b848454610163565b825550505050565b5f90565b610221610215565b61022c8184846101f0565b505050565b5b8181101561024f576102445f82610219565b600181019050610232565b5050565b601f8211156102945761026581610136565b61026e84610148565b8101602085101561027d578190505b61029161028985610148565b830182610231565b50505b505050565b5f82821c905092915050565b5f6102b45f1984600802610299565b1980831691505092915050565b5f6102cc83836102a5565b9150826002028217905092915050565b6102e5826100a2565b67ffffffffffffffff8111156102fe576102fd6100ac565b5b6103088254610106565b610313828285610253565b5f60209050601f831160018114610344575f8415610332578287015190505b61033c85826102c1565b8655506103a3565b601f19841661035286610136565b5f5b8281101561037957848901518255600182019150602085019450602081019050610354565b868310156103965784890151610392601f8916826102a5565b8355505b6001600288020188555050505b505050505050565b612c3a806103b85f395ff3fe608060405234801561000f575f80fd5b50600436106100e8575f3560e01c806370a082311161008a578063b88d4fde11610064578063b88d4fde14610258578063c87b56dd14610274578063e985e9c5146102a4578063eacabe14146102d4576100e8565b806370a08231146101ee57806395d89b411461021e578063a22cb4651461023c576100e8565b8063095ea7b3116100c6578063095ea7b31461016a57806323b872dd1461018657806342842e0e146101a25780636352211e146101be576100e8565b806301ffc9a7146100ec57806306fdde031461011c578063081812fc1461013a575b5f80fd5b61010660048036038101906101019190611808565b610304565b604051610113919061184d565b60405180910390f35b6101246103e5565b60405161013191906118d6565b60405180910390f35b610154600480360381019061014f9190611929565b610474565b6040516101619190611993565b60405180910390f35b610184600480360381019061017f91906119d6565b6104f5565b005b6101a0600480360381019061019b9190611a14565b61060b565b005b6101bc60048036038101906101b79190611a14565b61066b565b005b6101d860048036038101906101d39190611929565b61068a565b6040516101e59190611993565b60405180910390f35b61020860048036038101906102039190611a64565b610736565b6040516102159190611a9e565b60405180910390f35b6102266107ea565b60405161023391906118d6565b60405180910390f35b61025660048036038101906102519190611ae1565b61087a565b005b610272600480360381019061026d9190611c4b565b610890565b005b61028e60048036038101906102899190611929565b6108f2565b60405161029b91906118d6565b60405180910390f35b6102be60048036038101906102b99190611ccb565b610a3b565b6040516102cb919061184d565b60405180910390f35b6102ee60048036038101906102e99190611da7565b610ac9565b6040516102fb9190611a9e565b60405180910390f35b5f7f80ac58cd000000000000000000000000000000000000000000000000000000007bffffffffffffffffffffffffffffffffffffffffffffffffffffffff1916827bffffffffffffffffffffffffffffffffffffffffffffffffffffffff191614806103ce57507f5b5e139f000000000000000000000000000000000000000000000000000000007bffffffffffffffffffffffffffffffffffffffffffffffffffffffff1916827bffffffffffffffffffffffffffffffffffffffffffffffffffffffff1916145b806103de57506103dd82610aff565b5b9050919050565b60605f80546103f390611e2e565b80601f016020809104026020016040519081016040528092919081815260200182805461041f90611e2e565b801561046a5780601f106104415761010080835404028352916020019161046a565b820191905f5260205f20905b81548152906001019060200180831161044d57829003601f168201915b5050505050905090565b5f61047e82610b68565b6104bd576040517f08c379a00000000000000000000000000000000000000000000000000000000081526004016104b490611ece565b60405180910390fd5b60045f8381526020019081526020015f205f9054906101000a900473ffffffffffffffffffffffffffffffffffffffff169050919050565b5f6104ff8261068a565b90508073ffffffffffffffffffffffffffffffffffffffff168373ffffffffffffffffffffffffffffffffffffffff160361056f576040517f08c379a000000000000000000000000000000000000000000000000000000000815260040161056690611f5c565b60405180910390fd5b8073ffffffffffffffffffffffffffffffffffffffff1661058e610bd0565b73ffffffffffffffffffffffffffffffffffffffff1614806105bd57506105bc816105b7610bd0565b610a3b565b5b6105fc576040517f08c379a00000000000000000000000000000000000000000000000000000000081526004016105f390611fea565b60405180910390fd5b6106068383610bd7565b505050565b61061c610616610bd0565b82610c8d565b61065b576040517f08c379a000000000000000000000000000000000000000000000000000000000815260040161065290612078565b60405180910390fd5b610666838383610d69565b505050565b61068583838360405180602001604052805f815250610890565b505050565b5f8060025f8481526020019081526020015f205f9054906101000a900473ffffffffffffffffffffffffffffffffffffffff1690505f73ffffffffffffffffffffffffffffffffffffffff168173ffffffffffffffffffffffffffffffffffffffff160361072d576040517f08c379a000000000000000000000000000000000000000000000000000000000815260040161072490612106565b60405180910390fd5b80915050919050565b5f8073ffffffffffffffffffffffffffffffffffffffff168273ffffffffffffffffffffffffffffffffffffffff16036107a5576040517f08c379a000000000000000000000000000000000000000000000000000000000815260040161079c90612194565b60405180910390fd5b60035f8373ffffffffffffffffffffffffffffffffffffffff1673ffffffffffffffffffffffffffffffffffffffff1681526020019081526020015f20549050919050565b6060600180546107f990611e2e565b80601f016020809104026020016040519081016040528092919081815260200182805461082590611e2e565b80156108705780601f1061084757610100808354040283529160200191610870565b820191905f5260205f20905b81548152906001019060200180831161085357829003601f168201915b5050505050905090565b61088c610885610bd0565b8383610fc4565b5050565b6108a161089b610bd0565b83610c8d565b6108e0576040517f08c379a00000000000000000000000000000000000000000000000000000000081526004016108d790612078565b60405180910390fd5b6108ec8484848461112b565b50505050565b60606108fd82610b68565b61093c576040517f08c379a000000000000000000000000000000000000000000000000000000000815260040161093390612222565b60405180910390fd5b5f60065f8481526020019081526020015f20805461095990611e2e565b80601f016020809104026020016040519081016040528092919081815260200182805461098590611e2e565b80156109d05780601f106109a7576101008083540402835291602001916109d0565b820191905f5260205f20905b8154815290600101906020018083116109b357829003601f168201915b505050505090505f6109e0611187565b90505f8151036109f4578192505050610a36565b5f82511115610a28578082604051602001610a1092919061227a565b60405160208183030381529060405292505050610a36565b610a318461119d565b925050505b919050565b5f60055f8473ffffffffffffffffffffffffffffffffffffffff1673ffffffffffffffffffffffffffffffffffffffff1681526020019081526020015f205f8373ffffffffffffffffffffffffffffffffffffffff1673ffffffffffffffffffffffffffffffffffffffff1681526020019081526020015f205f9054906101000a900460ff16905092915050565b5f610ad46007611241565b5f610adf6007611255565b9050610aeb8482611261565b610af58184611430565b8091505092915050565b5f7f01ffc9a7000000000000000000000000000000000000000000000000000000007bffffffffffffffffffffffffffffffffffffffffffffffffffffffff1916827bffffffffffffffffffffffffffffffffffffffffffffffffffffffff1916149050919050565b5f8073ffffffffffffffffffffffffffffffffffffffff1660025f8481526020019081526020015f205f9054906101000a900473ffffffffffffffffffffffffffffffffffffffff1673ffffffffffffffffffffffffffffffffffffffff1614159050919050565b5f33905090565b8160045f8381526020019081526020015f205f6101000a81548173ffffffffffffffffffffffffffffffffffffffff021916908373ffffffffffffffffffffffffffffffffffffffff160217905550808273ffffffffffffffffffffffffffffffffffffffff16610c478361068a565b73ffffffffffffffffffffffffffffffffffffffff167f8c5be1e5ebec7d5bd14f71427d1e84f3dd0314c0f7b2291e5b200ac8c7c3b92560405160405180910390a45050565b5f610c9782610b68565b610cd6576040517f08c379a0000000000000000000000000000000000000000000000000000000008152600401610ccd9061230d565b60405180910390fd5b5f610ce08361068a565b90508073ffffffffffffffffffffffffffffffffffffffff168473ffffffffffffffffffffffffffffffffffffffff161480610d225750610d218185610a3b565b5b80610d6057508373ffffffffffffffffffffffffffffffffffffffff16610d4884610474565b73ffffffffffffffffffffffffffffffffffffffff16145b91505092915050565b8273ffffffffffffffffffffffffffffffffffffffff16610d898261068a565b73ffffffffffffffffffffffffffffffffffffffff1614610ddf576040517f08c379a0000000000000000000000000000000000000000000000000000000008152600401610dd69061239b565b60405180910390fd5b5f73ffffffffffffffffffffffffffffffffffffffff168273ffffffffffffffffffffffffffffffffffffffff1603610e4d576040517f08c379a0000000000000000000000000000000000000000000000000000000008152600401610e4490612429565b60405180910390fd5b610e5883838361149b565b610e625f82610bd7565b600160035f8573ffffffffffffffffffffffffffffffffffffffff1673ffffffffffffffffffffffffffffffffffffffff1681526020019081526020015f205f828254610eaf9190612474565b92505081905550600160035f8473ffffffffffffffffffffffffffffffffffffffff1673ffffffffffffffffffffffffffffffffffffffff1681526020019081526020015f205f828254610f0391906124a7565b925050819055508160025f8381526020019081526020015f205f6101000a81548173ffffffffffffffffffffffffffffffffffffffff021916908373ffffffffffffffffffffffffffffffffffffffff160217905550808273ffffffffffffffffffffffffffffffffffffffff168473ffffffffffffffffffffffffffffffffffffffff167fddf252ad1be2c89b69c2b068fc378daa952ba7f163c4a11628f55a4df523b3ef60405160405180910390a4610fbf8383836114a0565b505050565b8173ffffffffffffffffffffffffffffffffffffffff168373ffffffffffffffffffffffffffffffffffffffff1603611032576040517f08c379a000000000000000000000000000000000000000000000000000000000815260040161102990612524565b60405180910390fd5b8060055f8573ffffffffffffffffffffffffffffffffffffffff1673ffffffffffffffffffffffffffffffffffffffff1681526020019081526020015f205f8473ffffffffffffffffffffffffffffffffffffffff1673ffffffffffffffffffffffffffffffffffffffff1681526020019081526020015f205f6101000a81548160ff0219169083151502179055508173ffffffffffffffffffffffffffffffffffffffff168373ffffffffffffffffffffffffffffffffffffffff167f17307eab39ab6107e8899845ad3d59bd9653f200f220920489ca2b5937696c318360405161111e919061184d565b60405180910390a3505050565b611136848484610d69565b611142848484846114a5565b611181576040517f08c379a0000000000000000000000000000000000000000000000000000000008152600401611178906125b2565b60405180910390fd5b50505050565b606060405180602001604052805f815250905090565b60606111a882610b68565b6111e7576040517f08c379a00000000000000000000000000000000000000000000000000000000081526004016111de90612640565b60405180910390fd5b5f6111f0611187565b90505f81511161120e5760405180602001604052805f815250611239565b8061121884611627565b60405160200161122992919061227a565b6040516020818303038152906040525b915050919050565b6001815f015f828254019250508190555050565b5f815f01549050919050565b5f73ffffffffffffffffffffffffffffffffffffffff168273ffffffffffffffffffffffffffffffffffffffff16036112cf576040517f08c379a00000000000000000000000000000000000000000000000000000000081526004016112c6906126a8565b60405180910390fd5b6112d881610b68565b15611318576040517f08c379a000000000000000000000000000000000000000000000000000000000815260040161130f90612710565b60405180910390fd5b6113235f838361149b565b600160035f8473ffffffffffffffffffffffffffffffffffffffff1673ffffffffffffffffffffffffffffffffffffffff1681526020019081526020015f205f82825461137091906124a7565b925050819055508160025f8381526020019081526020015f205f6101000a81548173ffffffffffffffffffffffffffffffffffffffff021916908373ffffffffffffffffffffffffffffffffffffffff160217905550808273ffffffffffffffffffffffffffffffffffffffff165f73ffffffffffffffffffffffffffffffffffffffff167fddf252ad1be2c89b69c2b068fc378daa952ba7f163c4a11628f55a4df523b3ef60405160405180910390a461142c5f83836114a0565b5050565b61143982610b68565b611478576040517f08c379a000000000000000000000000000000000000000000000000000000000815260040161146f9061279e565b60405180910390fd5b8060065f8481526020019081526020015f2090816114969190612959565b505050565b505050565b505050565b5f6114c58473ffffffffffffffffffffffffffffffffffffffff16611780565b1561161a578373ffffffffffffffffffffffffffffffffffffffff1663150b7a026114ee610bd0565b8786866040518563ffffffff1660e01b81526004016115109493929190612a7a565b6020604051808303815f875af192505050801561154b57506040513d601f19601f820116820180604052508101906115489190612ad8565b60015b6115ca573d805f8114611579576040519150601f19603f3d011682016040523d82523d5f602084013e61157e565b606091505b505f8151036115c2576040517f08c379a00000000000000000000000000000000000000000000000000000000081526004016115b9906125b2565b60405180910390fd5b805181602001fd5b63150b7a0260e01b7bffffffffffffffffffffffffffffffffffffffffffffffffffffffff1916817bffffffffffffffffffffffffffffffffffffffffffffffffffffffff19161491505061161f565b600190505b949350505050565b60605f820361166d576040518060400160405280600181526020017f3000000000000000000000000000000000000000000000000000000000000000815250905061177b565b5f8290505f5b5f821461169c57808061168590612b03565b915050600a826116959190612b77565b9150611673565b5f8167ffffffffffffffff8111156116b7576116b6611b27565b5b6040519080825280601f01601f1916602001820160405280156116e95781602001600182028036833780820191505090505b5090505b5f8514611774576001826117019190612474565b9150600a856117109190612ba7565b603061171c91906124a7565b60f81b81838151811061173257611731612bd7565b5b60200101907effffffffffffffffffffffffffffffffffffffffffffffffffffffffffffff191690815f1a905350600a8561176d9190612b77565b94506116ed565b8093505050505b919050565b5f808273ffffffffffffffffffffffffffffffffffffffff163b119050919050565b5f604051905090565b5f80fd5b5f80fd5b5f7fffffffff0000000000000000000000000000000000000000000000000000000082169050919050565b6117e7816117b3565b81146117f1575f80fd5b50565b5f81359050611802816117de565b92915050565b5f6020828403121561181d5761181c6117ab565b5b5f61182a848285016117f4565b91505092915050565b5f8115159050919050565b61184781611833565b82525050565b5f6020820190506118605f83018461183e565b92915050565b5f81519050919050565b5f82825260208201905092915050565b8281835e5f83830152505050565b5f601f19601f8301169050919050565b5f6118a882611866565b6118b28185611870565b93506118c2818560208601611880565b6118cb8161188e565b840191505092915050565b5f6020820190508181035f8301526118ee818461189e565b905092915050565b5f819050919050565b611908816118f6565b8114611912575f80fd5b50565b5f81359050611923816118ff565b92915050565b5f6020828403121561193e5761193d6117ab565b5b5f61194b84828501611915565b91505092915050565b5f73ffffffffffffffffffffffffffffffffffffffff82169050919050565b5f61197d82611954565b9050919050565b61198d81611973565b82525050565b5f6020820190506119a65f830184611984565b92915050565b6119b581611973565b81146119bf575f80fd5b50565b5f813590506119d0816119ac565b92915050565b5f80604083850312156119ec576119eb6117ab565b5b5f6119f9858286016119c2565b9250506020611a0a85828601611915565b9150509250929050565b5f805f60608486031215611a2b57611a2a6117ab565b5b5f611a38868287016119c2565b9350506020611a49868287016119c2565b9250506040611a5a86828701611915565b9150509250925092565b5f60208284031215611a7957611a786117ab565b5b5f611a86848285016119c2565b91505092915050565b611a98816118f6565b82525050565b5f602082019050611ab15f830184611a8f565b92915050565b611ac081611833565b8114611aca575f80fd5b50565b5f81359050611adb81611ab7565b92915050565b5f8060408385031215611af757611af66117ab565b5b5f611b04858286016119c2565b9250506020611b1585828601611acd565b9150509250929050565b5f80fd5b5f80fd5b7f4e487b71000000000000000000000000000000000000000000000000000000005f52604160045260245ffd5b611b5d8261188e565b810181811067ffffffffffffffff82111715611b7c57611b7b611b27565b5b80604052505050565b5f611b8e6117a2565b9050611b9a8282611b54565b919050565b5f67ffffffffffffffff821115611bb957611bb8611b27565b5b611bc28261188e565b9050602081019050919050565b828183375f83830152505050565b5f611bef611bea84611b9f565b611b85565b905082815260208101848484011115611c0b57611c0a611b23565b5b611c16848285611bcf565b509392505050565b5f82601f830112611c3257611c31611b1f565b5b8135611c42848260208601611bdd565b91505092915050565b5f805f8060808587031215611c6357611c626117ab565b5b5f611c70878288016119c2565b9450506020611c81878288016119c2565b9350506040611c9287828801611915565b925050606085013567ffffffffffffffff811115611cb357611cb26117af565b5b611cbf87828801611c1e565b91505092959194509250565b5f8060408385031215611ce157611ce06117ab565b5b5f611cee858286016119c2565b9250506020611cff858286016119c2565b9150509250929050565b5f67ffffffffffffffff821115611d2357611d22611b27565b5b611d2c8261188e565b9050602081019050919050565b5f611d4b611d4684611d09565b611b85565b905082815260208101848484011115611d6757611d66611b23565b5b611d72848285611bcf565b509392505050565b5f82601f830112611d8e57611d8d611b1f565b5b8135611d9e848260208601611d39565b91505092915050565b5f8060408385031215611dbd57611dbc6117ab565b5b5f611dca858286016119c2565b925050602083013567ffffffffffffffff811115611deb57611dea6117af565b5b611df785828601611d7a565b9150509250929050565b7f4e487b71000000000000000000000000000000000000000000000000000000005f52602260045260245ffd5b5f6002820490506001821680611e4557607f821691505b602082108103611e5857611e57611e01565b5b50919050565b7f4552433732313a20617070726f76656420717565727920666f72206e6f6e65785f8201527f697374656e7420746f6b656e0000000000000000000000000000000000000000602082015250565b5f611eb8602c83611870565b9150611ec382611e5e565b604082019050919050565b5f6020820190508181035f830152611ee581611eac565b9050919050565b7f4552433732313a20617070726f76616c20746f2063757272656e74206f776e655f8201527f7200000000000000000000000000000000000000000000000000000000000000602082015250565b5f611f46602183611870565b9150611f5182611eec565b604082019050919050565b5f6020820190508181035f830152611f7381611f3a565b9050919050565b7f4552433732313a20617070726f76652063616c6c6572206973206e6f74206f775f8201527f6e6572206e6f7220617070726f76656420666f7220616c6c0000000000000000602082015250565b5f611fd4603883611870565b9150611fdf82611f7a565b604082019050919050565b5f6020820190508181035f83015261200181611fc8565b9050919050565b7f4552433732313a207472616e736665722063616c6c6572206973206e6f74206f5f8201527f776e6572206e6f7220617070726f766564000000000000000000000000000000602082015250565b5f612062603183611870565b915061206d82612008565b604082019050919050565b5f6020820190508181035f83015261208f81612056565b9050919050565b7f4552433732313a206f776e657220717565727920666f72206e6f6e65786973745f8201527f656e7420746f6b656e0000000000000000000000000000000000000000000000602082015250565b5f6120f0602983611870565b91506120fb82612096565b604082019050919050565b5f6020820190508181035f83015261211d816120e4565b9050919050565b7f4552433732313a2062616c616e636520717565727920666f7220746865207a655f8201527f726f206164647265737300000000000000000000000000000000000000000000602082015250565b5f61217e602a83611870565b915061218982612124565b604082019050919050565b5f6020820190508181035f8301526121ab81612172565b9050919050565b7f45524337323155524953746f726167653a2055524920717565727920666f72205f8201527f6e6f6e6578697374656e7420746f6b656e000000000000000000000000000000602082015250565b5f61220c603183611870565b9150612217826121b2565b604082019050919050565b5f6020820190508181035f83015261223981612200565b9050919050565b5f81905092915050565b5f61225482611866565b61225e8185612240565b935061226e818560208601611880565b80840191505092915050565b5f612285828561224a565b9150612291828461224a565b91508190509392505050565b7f4552433732313a206f70657261746f7220717565727920666f72206e6f6e65785f8201527f697374656e7420746f6b656e0000000000000000000000000000000000000000602082015250565b5f6122f7602c83611870565b91506123028261229d565b604082019050919050565b5f6020820190508181035f830152612324816122eb565b9050919050565b7f4552433732313a207472616e736665722066726f6d20696e636f7272656374205f8201527f6f776e6572000000000000000000000000000000000000000000000000000000602082015250565b5f612385602583611870565b91506123908261232b565b604082019050919050565b5f6020820190508181035f8301526123b281612379565b9050919050565b7f4552433732313a207472616e7366657220746f20746865207a65726f206164645f8201527f7265737300000000000000000000000000000000000000000000000000000000602082015250565b5f612413602483611870565b915061241e826123b9565b604082019050919050565b5f6020820190508181035f83015261244081612407565b9050919050565b7f4e487b71000000000000000000000000000000000000000000000000000000005f52601160045260245ffd5b5f61247e826118f6565b9150612489836118f6565b92508282039050818111156124a1576124a0612447565b5b92915050565b5f6124b1826118f6565b91506124bc836118f6565b92508282019050808211156124d4576124d3612447565b5b92915050565b7f4552433732313a20617070726f766520746f2063616c6c6572000000000000005f82015250565b5f61250e601983611870565b9150612519826124da565b602082019050919050565b5f6020820190508181035f83015261253b81612502565b9050919050565b7f4552433732313a207472616e7366657220746f206e6f6e2045524337323152655f8201527f63656976657220696d706c656d656e7465720000000000000000000000000000602082015250565b5f61259c603283611870565b91506125a782612542565b604082019050919050565b5f6020820190508181035f8301526125c981612590565b9050919050565b7f4552433732314d657461646174613a2055524920717565727920666f72206e6f5f8201527f6e6578697374656e7420746f6b656e0000000000000000000000000000000000602082015250565b5f61262a602f83611870565b9150612635826125d0565b604082019050919050565b5f6020820190508181035f8301526126578161261e565b9050919050565b7f4552433732313a206d696e7420746f20746865207a65726f20616464726573735f82015250565b5f612692602083611870565b915061269d8261265e565b602082019050919050565b5f6020820190508181035f8301526126bf81612686565b9050919050565b7f4552433732313a20746f6b656e20616c7265616479206d696e746564000000005f82015250565b5f6126fa601c83611870565b9150612705826126c6565b602082019050919050565b5f6020820190508181035f830152612727816126ee565b9050919050565b7f45524337323155524953746f726167653a2055524920736574206f66206e6f6e5f8201527f6578697374656e7420746f6b656e000000000000000000000000000000000000602082015250565b5f612788602e83611870565b91506127938261272e565b604082019050919050565b5f6020820190508181035f8301526127b58161277c565b9050919050565b5f819050815f5260205f209050919050565b5f6020601f8301049050919050565b5f82821b905092915050565b5f600883026128187fffffffffffffffffffffffffffffffffffffffffffffffffffffffffffffffff826127dd565b61282286836127dd565b95508019841693508086168417925050509392505050565b5f819050919050565b5f61285d612858612853846118f6565b61283a565b6118f6565b9050919050565b5f819050919050565b61287683612843565b61288a61288282612864565b8484546127e9565b825550505050565b5f90565b61289e612892565b6128a981848461286d565b505050565b5b818110156128cc576128c15f82612896565b6001810190506128af565b5050565b601f821115612911576128e2816127bc565b6128eb846127ce565b810160208510156128fa578190505b61290e612906856127ce565b8301826128ae565b50505b505050565b5f82821c905092915050565b5f6129315f1984600802612916565b1980831691505092915050565b5f6129498383612922565b9150826002028217905092915050565b61296282611866565b67ffffffffffffffff81111561297b5761297a611b27565b5b6129858254611e2e565b6129908282856128d0565b5f60209050601f8311600181146129c1575f84156129af578287015190505b6129b9858261293e565b865550612a20565b601f1984166129cf866127bc565b5f5b828110156129f6578489015182556001820191506020850194506020810190506129d1565b86831015612a135784890151612a0f601f891682612922565b8355505b6001600288020188555050505b505050505050565b5f81519050919050565b5f82825260208201905092915050565b5f612a4c82612a28565b612a568185612a32565b9350612a66818560208601611880565b612a6f8161188e565b840191505092915050565b5f608082019050612a8d5f830187611984565b612a9a6020830186611984565b612aa76040830185611a8f565b8181036060830152612ab98184612a42565b905095945050505050565b5f81519050612ad2816117de565b92915050565b5f60208284031215612aed57612aec6117ab565b5b5f612afa84828501612ac4565b91505092915050565b5f612b0d826118f6565b91507fffffffffffffffffffffffffffffffffffffffffffffffffffffffffffffffff8203612b3f57612b3e612447565b5b600182019050919050565b7f4e487b71000000000000000000000000000000000000000000000000000000005f52601260045260245ffd5b5f612b81826118f6565b9150612b8c836118f6565b925082612b9c57612b9b612b4a565b5b828204905092915050565b5f612bb1826118f6565b9150612bbc836118f6565b925082612bcc57612bcb612b4a565b5b828206905092915050565b7f4e487b71000000000000000000000000000000000000000000000000000000005f52603260045260245ffdfea2646970667358221220f218c7ffd448f242d456d4e088d6e57815f22918a50c201a20a28f17874f1e9264736f6c634300081a0033",
  "immutableReferences": {},
  "source": "//Contract based on https://docs.openzeppelin.com/contracts/3.x/erc721\n// SPDX-License-Identifier: MIT\npragma solidity ^0.8.0;\n\nimport \"@openzeppelin/contracts/token/ERC721/extensions/ERC721URIStorage.sol\";\nimport \"@openzeppelin/contracts/utils/Counters.sol\";\n\ncontract MetadevsContract is ERC721URIStorage {\n    using Counters for Counters.Counter;\n    Counters.Counter private _tokenIds;\n\n    constructor() ERC721(\"MetadevsToken\", \"MDTKN\") {}\n\n    function mintNFT(address recipient, string memory tokenURI)\n        public\n        returns (uint256)\n    {\n        _tokenIds.increment();\n\n        uint256 newItemId = _tokenIds.current();\n        _mint(recipient, newItemId);\n        _setTokenURI(newItemId, tokenURI);\n\n        return newItemId;\n    }\n}\n",
  "sourcePath": "C:\\Program Files\\metadevs-nft-minter-codigo-inicial\\metadevs-nft-minter-main\\src\\contracts\\MetadevsContract.sol",
  "compiler": {
    "name": "solc",
    "version": "0.8.26+commit.8a97fa7a.Emscripten.clang"
  },
  "schemaVersion": "3.4.16",
  "updatedAt": "2024-06-18T02:16:29.192Z",
  "devdoc": {
    "events": {
      "Approval(address,address,uint256)": {
        "details": "Emitted when `owner` enables `approved` to manage the `tokenId` token."
      },
      "ApprovalForAll(address,address,bool)": {
        "details": "Emitted when `owner` enables or disables (`approved`) `operator` to manage all of its assets."
      },
      "Transfer(address,address,uint256)": {
        "details": "Emitted when `tokenId` token is transferred from `from` to `to`."
      }
    },
    "kind": "dev",
    "methods": {
      "approve(address,uint256)": {
        "details": "See {IERC721-approve}."
      },
      "balanceOf(address)": {
        "details": "See {IERC721-balanceOf}."
      },
      "getApproved(uint256)": {
        "details": "See {IERC721-getApproved}."
      },
      "isApprovedForAll(address,address)": {
        "details": "See {IERC721-isApprovedForAll}."
      },
      "name()": {
        "details": "See {IERC721Metadata-name}."
      },
      "ownerOf(uint256)": {
        "details": "See {IERC721-ownerOf}."
      },
      "safeTransferFrom(address,address,uint256)": {
        "details": "See {IERC721-safeTransferFrom}."
      },
      "safeTransferFrom(address,address,uint256,bytes)": {
        "details": "See {IERC721-safeTransferFrom}."
      },
      "setApprovalForAll(address,bool)": {
        "details": "See {IERC721-setApprovalForAll}."
      },
      "supportsInterface(bytes4)": {
        "details": "See {IERC165-supportsInterface}."
      },
      "symbol()": {
        "details": "See {IERC721Metadata-symbol}."
      },
      "tokenURI(uint256)": {
        "details": "See {IERC721Metadata-tokenURI}."
      },
      "transferFrom(address,address,uint256)": {
        "details": "See {IERC721-transferFrom}."
      }
    },
    "version": 1
  },
  "userdoc": {
    "kind": "user",
    "methods": {},
    "version": 1
  }
}